{
  "_format": "hh-sol-artifact-1",
  "contractName": "Marketplace",
  "sourceName": "contracts/Marketplace.sol",
  "abi": [
    {
      "inputs": [
        {
          "internalType": "address",
          "name": "collection",
          "type": "address"
        }
      ],
      "stateMutability": "nonpayable",
      "type": "constructor"
    },
    {
      "anonymous": false,
      "inputs": [
        {
          "indexed": true,
          "internalType": "uint256",
          "name": "tokenId",
          "type": "uint256"
        },
        {
          "indexed": true,
          "internalType": "address",
          "name": "seller",
          "type": "address"
        },
        {
          "indexed": false,
          "internalType": "uint256",
          "name": "price",
          "type": "uint256"
        }
      ],
      "name": "NFTListed",
      "type": "event"
    },
    {
      "anonymous": false,
      "inputs": [
        {
          "indexed": true,
          "internalType": "uint256",
          "name": "tokenId",
          "type": "uint256"
        },
        {
          "indexed": false,
          "internalType": "uint256",
          "name": "price",
          "type": "uint256"
        }
      ],
      "name": "NFTPriceUpdated",
      "type": "event"
    },
    {
      "anonymous": false,
      "inputs": [
        {
          "indexed": true,
          "internalType": "uint256",
          "name": "tokenId",
          "type": "uint256"
        }
      ],
      "name": "NFTRemoved",
      "type": "event"
    },
    {
      "anonymous": false,
      "inputs": [
        {
          "indexed": true,
          "internalType": "uint256",
          "name": "tokenId",
          "type": "uint256"
        },
        {
          "indexed": true,
          "internalType": "address",
          "name": "offerer",
          "type": "address"
        },
        {
          "indexed": false,
          "internalType": "uint256",
          "name": "value",
          "type": "uint256"
        }
      ],
      "name": "OfferMade",
      "type": "event"
    },
    {
      "anonymous": false,
      "inputs": [
        {
          "indexed": true,
          "internalType": "uint256",
          "name": "tokenId",
          "type": "uint256"
        },
        {
          "indexed": false,
          "internalType": "uint256",
          "name": "price",
          "type": "uint256"
        },
        {
          "indexed": true,
          "internalType": "address",
          "name": "buyer",
          "type": "address"
        }
      ],
      "name": "PurchaseMade",
      "type": "event"
    },
    {
      "inputs": [
        {
          "internalType": "uint256",
          "name": "_tokenId",
          "type": "uint256"
        },
        {
          "internalType": "address",
          "name": "_buyer",
          "type": "address"
        }
      ],
      "name": "acceptOffer",
      "outputs": [],
      "stateMutability": "nonpayable",
      "type": "function"
    },
    {
      "inputs": [
        {
          "internalType": "uint256",
          "name": "_tokenId",
          "type": "uint256"
        }
      ],
      "name": "buyNFT",
      "outputs": [],
      "stateMutability": "payable",
      "type": "function"
    },
    {
      "inputs": [
        {
          "internalType": "uint256",
          "name": "_tokenId",
          "type": "uint256"
        }
      ],
      "name": "cancelOffer",
      "outputs": [],
      "stateMutability": "nonpayable",
      "type": "function"
    },
    {
      "inputs": [
        {
          "internalType": "uint256",
          "name": "_tokenId",
          "type": "uint256"
        }
      ],
      "name": "getNFTPrice",
      "outputs": [
        {
          "internalType": "uint256",
          "name": "",
          "type": "uint256"
        }
      ],
      "stateMutability": "view",
      "type": "function"
    },
    {
      "inputs": [
        {
          "internalType": "address",
          "name": "_seller",
          "type": "address"
        }
      ],
      "name": "getNFTsBySeller",
      "outputs": [
        {
          "internalType": "uint256[]",
          "name": "",
          "type": "uint256[]"
        }
      ],
      "stateMutability": "view",
      "type": "function"
    },
    {
      "inputs": [
        {
          "internalType": "uint256",
          "name": "_tokenId",
          "type": "uint256"
        }
      ],
      "name": "getPendingOffers",
      "outputs": [
        {
          "components": [
            {
              "internalType": "address",
              "name": "offerer",
              "type": "address"
            },
            {
              "internalType": "uint256",
              "name": "value",
              "type": "uint256"
            }
          ],
          "internalType": "struct Marketplace.Offer[]",
          "name": "",
          "type": "tuple[]"
        }
      ],
      "stateMutability": "view",
      "type": "function"
    },
    {
      "inputs": [
        {
          "internalType": "uint256",
          "name": "_tokenId",
          "type": "uint256"
        },
        {
          "internalType": "uint256",
          "name": "_price",
          "type": "uint256"
        }
      ],
      "name": "listNFT",
      "outputs": [],
      "stateMutability": "nonpayable",
      "type": "function"
    },
    {
      "inputs": [
        {
          "internalType": "uint256",
          "name": "_tokenId",
          "type": "uint256"
        }
      ],
      "name": "makeOffer",
      "outputs": [],
      "stateMutability": "payable",
      "type": "function"
    },
    {
      "inputs": [
        {
          "internalType": "uint256",
          "name": "",
          "type": "uint256"
        }
      ],
      "name": "nfts",
      "outputs": [
        {
          "internalType": "address",
          "name": "seller",
          "type": "address"
        },
        {
          "internalType": "uint256",
          "name": "tokenId",
          "type": "uint256"
        },
        {
          "internalType": "uint256",
          "name": "price",
          "type": "uint256"
        },
        {
          "internalType": "address",
          "name": "buyer",
          "type": "address"
        }
      ],
      "stateMutability": "view",
      "type": "function"
    },
    {
      "inputs": [
        {
          "internalType": "uint256",
          "name": "_tokenId",
          "type": "uint256"
        }
      ],
      "name": "removeNFT",
      "outputs": [],
      "stateMutability": "nonpayable",
      "type": "function"
    },
    {
      "inputs": [
        {
          "internalType": "uint256",
          "name": "_tokenId",
          "type": "uint256"
        },
        {
          "internalType": "uint256",
          "name": "_price",
          "type": "uint256"
        }
      ],
      "name": "updateNFTPrice",
      "outputs": [],
      "stateMutability": "nonpayable",
      "type": "function"
    }
  ],
  "bytecode": "0x60806040523480156200001157600080fd5b5060405162002f8a38038062002f8a83398181016040528101906200003791906200012a565b33600360006101000a81548173ffffffffffffffffffffffffffffffffffffffff021916908373ffffffffffffffffffffffffffffffffffffffff16021790555080600460006101000a81548173ffffffffffffffffffffffffffffffffffffffff021916908373ffffffffffffffffffffffffffffffffffffffff160217905550506200015c565b600080fd5b600073ffffffffffffffffffffffffffffffffffffffff82169050919050565b6000620000f282620000c5565b9050919050565b6200010481620000e5565b81146200011057600080fd5b50565b6000815190506200012481620000f9565b92915050565b600060208284031215620001435762000142620000c0565b5b6000620001538482850162000113565b91505092915050565b612e1e806200016c6000396000f3fe60806040526004361061009c5760003560e01c8063918d407d11610064578063918d407d146101a057806392976179146101c957806394383f14146102065780639a2f64741461022f578063ee4739cb1461024b578063ef706adf146102745761009c565b806309de4e06146100a1578063265aa621146100de5780634ac0123d1461011e57806350dc18671461014757806351ed828814610184575b600080fd5b3480156100ad57600080fd5b506100c860048036038101906100c391906120c7565b61029d565b6040516100d591906121bc565b60405180910390f35b3480156100ea57600080fd5b506101056004803603810190610100919061220a565b610410565b6040516101159493929190612255565b60405180910390f35b34801561012a57600080fd5b506101456004803603810190610140919061229a565b610480565b005b34801561015357600080fd5b5061016e6004803603810190610169919061220a565b6105c1565b60405161017b91906123c7565b60405180910390f35b61019e6004803603810190610199919061220a565b6106ee565b005b3480156101ac57600080fd5b506101c760048036038101906101c291906123e9565b61090b565b005b3480156101d557600080fd5b506101f060048036038101906101eb919061220a565b610b5b565b6040516101fd9190612429565b60405180910390f35b34801561021257600080fd5b5061022d6004803603810190610228919061229a565b610b8f565b005b6102496004803603810190610244919061220a565b610ed3565b005b34801561025757600080fd5b50610272600480360381019061026d919061220a565b6112e9565b005b34801561028057600080fd5b5061029b6004803603810190610296919061220a565b611481565b005b606060006102e8600160008573ffffffffffffffffffffffffffffffffffffffff1673ffffffffffffffffffffffffffffffffffffffff1681526020019081526020016000206115c2565b67ffffffffffffffff81111561030157610300612444565b5b60405190808252806020026020018201604052801561032f5781602001602082028036833780820191505090505b50905060005b61037c600160008673ffffffffffffffffffffffffffffffffffffffff1673ffffffffffffffffffffffffffffffffffffffff1681526020019081526020016000206115c2565b811015610406576103d481600160008773ffffffffffffffffffffffffffffffffffffffff1673ffffffffffffffffffffffffffffffffffffffff1681526020019081526020016000206115d790919063ffffffff16565b8282815181106103e7576103e6612473565b5b60200260200101818152505080806103fe906124d1565b915050610335565b5080915050919050565b60006020528060005260406000206000915090508060000160009054906101000a900473ffffffffffffffffffffffffffffffffffffffff16908060010154908060020154908060030160009054906101000a900473ffffffffffffffffffffffffffffffffffffffff16905084565b610489826115f1565b6104c8576040517f08c379a00000000000000000000000000000000000000000000000000000000081526004016104bf90612576565b60405180910390fd5b60008083815260200190815260200160002060000160009054906101000a900473ffffffffffffffffffffffffffffffffffffffff1673ffffffffffffffffffffffffffffffffffffffff163373ffffffffffffffffffffffffffffffffffffffff161461056b576040517f08c379a000000000000000000000000000000000000000000000000000000000815260040161056290612608565b60405180910390fd5b8060008084815260200190815260200160002060020181905550817f2847cfe8afe8bcd9ac540f0259739697ea019f65d44c8e76c8796b8ce52f7c31826040516105b59190612429565b60405180910390a25050565b606060006105e060026000858152602001908152602001600020611612565b67ffffffffffffffff8111156105f9576105f8612444565b5b60405190808252806020026020018201604052801561063257816020015b61061f612034565b8152602001906001900390816106175790505b50905060005b61065360026000868152602001908152602001600020611612565b8110156106e457600080610682836002600089815260200190815260200160002061162790919063ffffffff16565b9150915060405180604001604052808373ffffffffffffffffffffffffffffffffffffffff168152602001828152508484815181106106c4576106c3612473565b5b6020026020010181905250505080806106dc906124d1565b915050610638565b5080915050919050565b6106f7816115f1565b610736576040517f08c379a000000000000000000000000000000000000000000000000000000000815260040161072d90612576565b60405180910390fd5b60008082815260200190815260200160002060000160009054906101000a900473ffffffffffffffffffffffffffffffffffffffff1673ffffffffffffffffffffffffffffffffffffffff163373ffffffffffffffffffffffffffffffffffffffff16036107d9576040517f08c379a00000000000000000000000000000000000000000000000000000000081526004016107d090612674565b60405180910390fd5b60008082815260200190815260200160002060020154341015610831576040517f08c379a0000000000000000000000000000000000000000000000000000000008152600401610828906126e0565b60405180910390fd5b3360008083815260200190815260200160002060030160006101000a81548173ffffffffffffffffffffffffffffffffffffffff021916908373ffffffffffffffffffffffffffffffffffffffff1602179055506108a48160008084815260200190815260200160002060020154611653565b3373ffffffffffffffffffffffffffffffffffffffff16817f67ba49958f8b7a80047dfa2bdad61ca2b10d970a32898c2f345a7b20079ba037600080858152602001908152602001600020600201546040516109009190612429565b60405180910390a350565b610914826115f1565b610953576040517f08c379a000000000000000000000000000000000000000000000000000000000815260040161094a90612576565b60405180910390fd5b60008083815260200190815260200160002060000160009054906101000a900473ffffffffffffffffffffffffffffffffffffffff1673ffffffffffffffffffffffffffffffffffffffff163373ffffffffffffffffffffffffffffffffffffffff16146109f6576040517f08c379a00000000000000000000000000000000000000000000000000000000081526004016109ed90612772565b60405180910390fd5b610a1b8160026000858152602001908152602001600020611aa490919063ffffffff16565b610a5a576040517f08c379a0000000000000000000000000000000000000000000000000000000008152600401610a5190612804565b60405180910390fd5b8060008084815260200190815260200160002060030160006101000a81548173ffffffffffffffffffffffffffffffffffffffff021916908373ffffffffffffffffffffffffffffffffffffffff160217905550610ad38160026000858152602001908152602001600020611ad490919063ffffffff16565b50610af38260008085815260200190815260200160002060020154611653565b8073ffffffffffffffffffffffffffffffffffffffff16827f67ba49958f8b7a80047dfa2bdad61ca2b10d970a32898c2f345a7b20079ba03760008086815260200190815260200160002060020154604051610b4f9190612429565b60405180910390a35050565b6000610b66826115f1565b610b71576000610b88565b600080838152602001908152602001600020600201545b9050919050565b60008111610bd2576040517f08c379a0000000000000000000000000000000000000000000000000000000008152600401610bc990612870565b60405180910390fd5b610bdb82611b04565b610c1a576040517f08c379a0000000000000000000000000000000000000000000000000000000008152600401610c11906128dc565b60405180910390fd5b6000600460009054906101000a900473ffffffffffffffffffffffffffffffffffffffff1673ffffffffffffffffffffffffffffffffffffffff16636352211e846040518263ffffffff1660e01b8152600401610c779190612429565b602060405180830381865afa158015610c94573d6000803e3d6000fd5b505050506040513d601f19601f82011682018060405250810190610cb89190612911565b90503373ffffffffffffffffffffffffffffffffffffffff168173ffffffffffffffffffffffffffffffffffffffff1614610d28576040517f08c379a0000000000000000000000000000000000000000000000000000000008152600401610d1f9061298a565b60405180910390fd5b60405180608001604052803373ffffffffffffffffffffffffffffffffffffffff168152602001848152602001838152602001600073ffffffffffffffffffffffffffffffffffffffff1681525060008085815260200190815260200160002060008201518160000160006101000a81548173ffffffffffffffffffffffffffffffffffffffff021916908373ffffffffffffffffffffffffffffffffffffffff160217905550602082015181600101556040820151816002015560608201518160030160006101000a81548173ffffffffffffffffffffffffffffffffffffffff021916908373ffffffffffffffffffffffffffffffffffffffff160217905550905050610e7e83600160003373ffffffffffffffffffffffffffffffffffffffff1673ffffffffffffffffffffffffffffffffffffffff168152602001908152602001600020611bb390919063ffffffff16565b503373ffffffffffffffffffffffffffffffffffffffff16837f5f9c03de076f5063cd3ebcfe8ef7aa8af378e4b35a83c77ba9777e97083879a284604051610ec69190612429565b60405180910390a3505050565b610edc816115f1565b610f1b576040517f08c379a0000000000000000000000000000000000000000000000000000000008152600401610f1290612576565b60405180910390fd5b60008082815260200190815260200160002060000160009054906101000a900473ffffffffffffffffffffffffffffffffffffffff1673ffffffffffffffffffffffffffffffffffffffff163373ffffffffffffffffffffffffffffffffffffffff1603610fbe576040517f08c379a0000000000000000000000000000000000000000000000000000000008152600401610fb590612a1c565b60405180910390fd5b60003411611001576040517f08c379a0000000000000000000000000000000000000000000000000000000008152600401610ff890612aae565b60405180910390fd5b6110263360026000848152602001908152602001600020611aa490919063ffffffff16565b156111755760006110523360026000858152602001908152602001600020611bcd90919063ffffffff16565b905060008111801561106357508034115b15611134576000819050349150611097338360026000878152602001908152602001600020611c009092919063ffffffff16565b503373ffffffffffffffffffffffffffffffffffffffff166108fc829081150290604051600060405180830381858888f193505050501580156110de573d6000803e3d6000fd5b503373ffffffffffffffffffffffffffffffffffffffff16837fbdf1e76c2ba2a5c85b93bf78678a4a3b06d63b18422612dac8d7d5249ed46714346040516111269190612429565b60405180910390a35061116f565b6040517f08c379a000000000000000000000000000000000000000000000000000000000815260040161116690612b40565b60405180910390fd5b506112e6565b60008082815260200190815260200160002060020154341061126d573360008083815260200190815260200160002060030160006101000a81548173ffffffffffffffffffffffffffffffffffffffff021916908373ffffffffffffffffffffffffffffffffffffffff1602179055506112048160008084815260200190815260200160002060020154611653565b3373ffffffffffffffffffffffffffffffffffffffff16817f67ba49958f8b7a80047dfa2bdad61ca2b10d970a32898c2f345a7b20079ba037600080858152602001908152602001600020600201546040516112609190612429565b60405180910390a36112e5565b611294333460026000858152602001908152602001600020611c009092919063ffffffff16565b503373ffffffffffffffffffffffffffffffffffffffff16817fbdf1e76c2ba2a5c85b93bf78678a4a3b06d63b18422612dac8d7d5249ed46714346040516112dc9190612429565b60405180910390a35b5b50565b3373ffffffffffffffffffffffffffffffffffffffff1660008083815260200190815260200160002060000160009054906101000a900473ffffffffffffffffffffffffffffffffffffffff1673ffffffffffffffffffffffffffffffffffffffff161461138c576040517f08c379a000000000000000000000000000000000000000000000000000000000815260040161138390612bac565b60405180910390fd5b6113dd81600160003373ffffffffffffffffffffffffffffffffffffffff1673ffffffffffffffffffffffffffffffffffffffff168152602001908152602001600020611c3590919063ffffffff16565b50600080828152602001908152602001600020600080820160006101000a81549073ffffffffffffffffffffffffffffffffffffffff0219169055600182016000905560028201600090556003820160006101000a81549073ffffffffffffffffffffffffffffffffffffffff02191690555050807f5b8046420884c4698df446ee47bb3971db3b7f1f959ff4f04a70b32b2873284160405160405180910390a250565b6114a63360026000848152602001908152602001600020611aa490919063ffffffff16565b6114e5576040517f08c379a00000000000000000000000000000000000000000000000000000000081526004016114dc90612804565b60405180910390fd5b600061150c3360026000858152602001908152602001600020611bcd90919063ffffffff16565b905060008111611551576040517f08c379a000000000000000000000000000000000000000000000000000000000815260040161154890612aae565b60405180910390fd5b6115763360026000858152602001908152602001600020611ad490919063ffffffff16565b503373ffffffffffffffffffffffffffffffffffffffff166108fc829081150290604051600060405180830381858888f193505050501580156115bd573d6000803e3d6000fd5b505050565b60006115d082600001611c4f565b9050919050565b60006115e68360000183611c60565b60001c905092915050565b60008060008084815260200190815260200160002060010154119050919050565b600061162082600001611c8b565b9050919050565b60008060008061163a8660000186611ca0565b915091508160001c8160001c9350935050509250929050565b6000600460009054906101000a900473ffffffffffffffffffffffffffffffffffffffff1673ffffffffffffffffffffffffffffffffffffffff16639a22d0ea846040518263ffffffff1660e01b81526004016116b09190612429565b602060405180830381865afa1580156116cd573d6000803e3d6000fd5b505050506040513d601f19601f820116820180604052508101906116f19190612be1565b905060008111611736576040517f08c379a000000000000000000000000000000000000000000000000000000000815260040161172d90612c80565b60405180910390fd5b6000600460009054906101000a900473ffffffffffffffffffffffffffffffffffffffff1673ffffffffffffffffffffffffffffffffffffffff16635b7121f8856040518263ffffffff1660e01b81526004016117939190612429565b602060405180830381865afa1580156117b0573d6000803e3d6000fd5b505050506040513d601f19601f820116820180604052508101906117d49190612911565b905060006117eb8385611ce090919063ffffffff16565b9050600080600087815260200190815260200160002060000160009054906101000a900473ffffffffffffffffffffffffffffffffffffffff1690508073ffffffffffffffffffffffffffffffffffffffff166108fc6118548488611cf690919063ffffffff16565b9081150290604051600060405180830381858888f1935050505015801561187f573d6000803e3d6000fd5b508273ffffffffffffffffffffffffffffffffffffffff166108fc839081150290604051600060405180830381858888f193505050501580156118c6573d6000803e3d6000fd5b50600460009054906101000a900473ffffffffffffffffffffffffffffffffffffffff1673ffffffffffffffffffffffffffffffffffffffff166342842e0e60008089815260200190815260200160002060000160009054906101000a900473ffffffffffffffffffffffffffffffffffffffff16336000808b8152602001908152602001600020600101546040518463ffffffff1660e01b815260040161197093929190612ca0565b600060405180830381600087803b15801561198a57600080fd5b505af115801561199e573d6000803e3d6000fd5b50505050611a2886600160008060008b815260200190815260200160002060000160009054906101000a900473ffffffffffffffffffffffffffffffffffffffff1673ffffffffffffffffffffffffffffffffffffffff1673ffffffffffffffffffffffffffffffffffffffff168152602001908152602001600020611c3590919063ffffffff16565b50600080878152602001908152602001600020600080820160006101000a81549073ffffffffffffffffffffffffffffffffffffffff0219169055600182016000905560028201600090556003820160006101000a81549073ffffffffffffffffffffffffffffffffffffffff02191690555050505050505050565b6000611acc836000018373ffffffffffffffffffffffffffffffffffffffff1660001b611d0c565b905092915050565b6000611afc836000018373ffffffffffffffffffffffffffffffffffffffff1660001b611d2c565b905092915050565b6000600460009054906101000a900473ffffffffffffffffffffffffffffffffffffffff1673ffffffffffffffffffffffffffffffffffffffff16636352211e836040518263ffffffff1660e01b8152600401611b619190612429565b602060405180830381865afa925050508015611b9b57506040513d601f19601f82011682018060405250810190611b989190612911565b60015b611ba85760009050611bae565b50600190505b919050565b6000611bc5836000018360001b611d65565b905092915050565b6000611bf5836000018373ffffffffffffffffffffffffffffffffffffffff1660001b611dd5565b60001c905092915050565b6000611c2c846000018473ffffffffffffffffffffffffffffffffffffffff1660001b8460001b611e51565b90509392505050565b6000611c47836000018360001b611e8c565b905092915050565b600081600001805490509050919050565b6000826000018281548110611c7857611c77612473565b5b9060005260206000200154905092915050565b6000611c9982600001611fa0565b9050919050565b6000806000611cbb8486600001611fb590919063ffffffff16565b9050808560020160008381526020019081526020016000205492509250509250929050565b60008183611cee9190612cd7565b905092915050565b60008183611d049190612d19565b905092915050565b6000611d248284600001611fcc90919063ffffffff16565b905092915050565b600082600201600083815260200190815260200160002060009055611d5d8284600001611fe390919063ffffffff16565b905092915050565b6000611d718383611ffa565b611dca578260000182908060018154018082558091505060019003906000526020600020016000909190919091505582600001805490508360010160008481526020019081526020016000208190555060019050611dcf565b600090505b92915050565b6000808360020160008481526020019081526020016000205490506000801b81141580611e085750611e078484611d0c565b5b611e47576040517f08c379a0000000000000000000000000000000000000000000000000000000008152600401611e3e90612d99565b60405180910390fd5b8091505092915050565b60008184600201600085815260200190815260200160002081905550611e83838560000161201d90919063ffffffff16565b90509392505050565b60008083600101600084815260200190815260200160002054905060008114611f94576000600182611ebe9190612d19565b9050600060018660000180549050611ed69190612d19565b9050818114611f45576000866000018281548110611ef757611ef6612473565b5b9060005260206000200154905080876000018481548110611f1b57611f1a612473565b5b90600052602060002001819055508387600101600083815260200190815260200160002081905550505b85600001805480611f5957611f58612db9565b5b600190038181906000526020600020016000905590558560010160008681526020019081526020016000206000905560019350505050611f9a565b60009150505b92915050565b6000611fae82600001611c4f565b9050919050565b6000611fc48360000183611c60565b905092915050565b6000611fdb8360000183611ffa565b905092915050565b6000611ff28360000183611e8c565b905092915050565b600080836001016000848152602001908152602001600020541415905092915050565b600061202c8360000183611d65565b905092915050565b6040518060400160405280600073ffffffffffffffffffffffffffffffffffffffff168152602001600081525090565b600080fd5b600073ffffffffffffffffffffffffffffffffffffffff82169050919050565b600061209482612069565b9050919050565b6120a481612089565b81146120af57600080fd5b50565b6000813590506120c18161209b565b92915050565b6000602082840312156120dd576120dc612064565b5b60006120eb848285016120b2565b91505092915050565b600081519050919050565b600082825260208201905092915050565b6000819050602082019050919050565b6000819050919050565b61213381612120565b82525050565b6000612145838361212a565b60208301905092915050565b6000602082019050919050565b6000612169826120f4565b61217381856120ff565b935061217e83612110565b8060005b838110156121af5781516121968882612139565b97506121a183612151565b925050600181019050612182565b5085935050505092915050565b600060208201905081810360008301526121d6818461215e565b905092915050565b6121e781612120565b81146121f257600080fd5b50565b600081359050612204816121de565b92915050565b6000602082840312156122205761221f612064565b5b600061222e848285016121f5565b91505092915050565b61224081612089565b82525050565b61224f81612120565b82525050565b600060808201905061226a6000830187612237565b6122776020830186612246565b6122846040830185612246565b6122916060830184612237565b95945050505050565b600080604083850312156122b1576122b0612064565b5b60006122bf858286016121f5565b92505060206122d0858286016121f5565b9150509250929050565b600081519050919050565b600082825260208201905092915050565b6000819050602082019050919050565b61230f81612089565b82525050565b60408201600082015161232b6000850182612306565b50602082015161233e602085018261212a565b50505050565b60006123508383612315565b60408301905092915050565b6000602082019050919050565b6000612374826122da565b61237e81856122e5565b9350612389836122f6565b8060005b838110156123ba5781516123a18882612344565b97506123ac8361235c565b92505060018101905061238d565b5085935050505092915050565b600060208201905081810360008301526123e18184612369565b905092915050565b60008060408385031215612400576123ff612064565b5b600061240e858286016121f5565b925050602061241f858286016120b2565b9150509250929050565b600060208201905061243e6000830184612246565b92915050565b7f4e487b7100000000000000000000000000000000000000000000000000000000600052604160045260246000fd5b7f4e487b7100000000000000000000000000000000000000000000000000000000600052603260045260246000fd5b7f4e487b7100000000000000000000000000000000000000000000000000000000600052601160045260246000fd5b60006124dc82612120565b91507fffffffffffffffffffffffffffffffffffffffffffffffffffffffffffffffff820361250e5761250d6124a2565b5b600182019050919050565b600082825260208201905092915050565b7f4e465420646f6573206e6f742065786973740000000000000000000000000000600082015250565b6000612560601283612519565b915061256b8261252a565b602082019050919050565b6000602082019050818103600083015261258f81612553565b9050919050565b7f4f6e6c79204e46542073656c6c65722063616e2075706461746520746865207060008201527f7269636500000000000000000000000000000000000000000000000000000000602082015250565b60006125f2602483612519565b91506125fd82612596565b604082019050919050565b60006020820190508181036000830152612621816125e5565b9050919050565b7f53656c6c65722063616e6e6f7420627579207468656972206f776e204e465400600082015250565b600061265e601f83612519565b915061266982612628565b602082019050919050565b6000602082019050818103600083015261268d81612651565b9050919050565b7f496e73756666696369656e742066756e64730000000000000000000000000000600082015250565b60006126ca601283612519565b91506126d582612694565b602082019050919050565b600060208201905081810360008301526126f9816126bd565b9050919050565b7f4f6e6c79207468652073656c6c65722063616e2061636365707420616e206f6660008201527f6665720000000000000000000000000000000000000000000000000000000000602082015250565b600061275c602383612519565b915061276782612700565b604082019050919050565b6000602082019050818103600083015261278b8161274f565b9050919050565b7f546865726520617265206e6f2070656e64696e67206f666665727320666f722060008201527f74686973204e4654000000000000000000000000000000000000000000000000602082015250565b60006127ee602883612519565b91506127f982612792565b604082019050919050565b6000602082019050818103600083015261281d816127e1565b9050919050565b7f50726963652063616e6e6f74206265207a65726f000000000000000000000000600082015250565b600061285a601483612519565b915061286582612824565b602082019050919050565b600060208201905081810360008301526128898161284d565b9050919050565b7f496e76616c6964204e4654000000000000000000000000000000000000000000600082015250565b60006128c6600b83612519565b91506128d182612890565b602082019050919050565b600060208201905081810360008301526128f5816128b9565b9050919050565b60008151905061290b8161209b565b92915050565b60006020828403121561292757612926612064565b5b6000612935848285016128fc565b91505092915050565b7f4e6f7420746865204e4654206f776e6572000000000000000000000000000000600082015250565b6000612974601183612519565b915061297f8261293e565b602082019050919050565b600060208201905081810360008301526129a381612967565b9050919050565b7f53656c6c65722063616e6e6f74206d616b6520616e206f6666657220666f722060008201527f7468656972206f776e204e465400000000000000000000000000000000000000602082015250565b6000612a06602d83612519565b9150612a11826129aa565b604082019050919050565b60006020820190508181036000830152612a35816129f9565b9050919050565b7f4f666665722076616c7565206d7573742062652067726561746572207468616e60008201527f207a65726f000000000000000000000000000000000000000000000000000000602082015250565b6000612a98602583612519565b9150612aa382612a3c565b604082019050919050565b60006020820190508181036000830152612ac781612a8b565b9050919050565b7f4f666665722076616c7565206d75737420626520686967686572207468616e2060008201527f6578697374696e67206f66666572000000000000000000000000000000000000602082015250565b6000612b2a602e83612519565b9150612b3582612ace565b604082019050919050565b60006020820190508181036000830152612b5981612b1d565b9050919050565b7f4f6e6c792073656c6c65722063616e2072656d6f7665204e4654000000000000600082015250565b6000612b96601a83612519565b9150612ba182612b60565b602082019050919050565b60006020820190508181036000830152612bc581612b89565b9050919050565b600081519050612bdb816121de565b92915050565b600060208284031215612bf757612bf6612064565b5b6000612c0584828501612bcc565b91505092915050565b7f526f79616c746965732070657263656e74206d7573742062652067726561746560008201527f72207468616e207a65726f2e0000000000000000000000000000000000000000602082015250565b6000612c6a602c83612519565b9150612c7582612c0e565b604082019050919050565b60006020820190508181036000830152612c9981612c5d565b9050919050565b6000606082019050612cb56000830186612237565b612cc26020830185612237565b612ccf6040830184612246565b949350505050565b6000612ce282612120565b9150612ced83612120565b9250828202612cfb81612120565b91508282048414831517612d1257612d116124a2565b5b5092915050565b6000612d2482612120565b9150612d2f83612120565b9250828203905081811115612d4757612d466124a2565b5b92915050565b7f456e756d657261626c654d61703a206e6f6e6578697374656e74206b65790000600082015250565b6000612d83601e83612519565b9150612d8e82612d4d565b602082019050919050565b60006020820190508181036000830152612db281612d76565b9050919050565b7f4e487b7100000000000000000000000000000000000000000000000000000000600052603160045260246000fdfea264697066735822122076de6f44bc2c89d60063cd383772caf637f4ec46d7aac25c2cab9d14b670538a64736f6c63430008110033",
  "linkReferences": {},
  "deployedLinkReferences": {}
}