{
  "_format": "hh-sol-artifact-1",
  "contractName": "Pixel4te",
  "sourceName": "contracts/Pixel4te.sol",
  "abi": [
    {
      "inputs": [],
      "stateMutability": "nonpayable",
      "type": "constructor"
    },
    {
      "anonymous": false,
      "inputs": [
        {
          "indexed": true,
          "internalType": "address",
          "name": "owner",
          "type": "address"
        },
        {
          "indexed": true,
          "internalType": "address",
          "name": "approved",
          "type": "address"
        },
        {
          "indexed": true,
          "internalType": "uint256",
          "name": "tokenId",
          "type": "uint256"
        }
      ],
      "name": "Approval",
      "type": "event"
    },
    {
      "anonymous": false,
      "inputs": [
        {
          "indexed": true,
          "internalType": "address",
          "name": "owner",
          "type": "address"
        },
        {
          "indexed": true,
          "internalType": "address",
          "name": "operator",
          "type": "address"
        },
        {
          "indexed": false,
          "internalType": "bool",
          "name": "approved",
          "type": "bool"
        }
      ],
      "name": "ApprovalForAll",
      "type": "event"
    },
    {
      "anonymous": false,
      "inputs": [
        {
          "indexed": true,
          "internalType": "address",
          "name": "previousOwner",
          "type": "address"
        },
        {
          "indexed": true,
          "internalType": "address",
          "name": "newOwner",
          "type": "address"
        }
      ],
      "name": "OwnershipTransferred",
      "type": "event"
    },
    {
      "anonymous": false,
      "inputs": [
        {
          "indexed": true,
          "internalType": "address",
          "name": "from",
          "type": "address"
        },
        {
          "indexed": true,
          "internalType": "address",
          "name": "to",
          "type": "address"
        },
        {
          "indexed": true,
          "internalType": "uint256",
          "name": "tokenId",
          "type": "uint256"
        }
      ],
      "name": "Transfer",
      "type": "event"
    },
    {
      "inputs": [
        {
          "internalType": "address",
          "name": "to",
          "type": "address"
        },
        {
          "internalType": "uint256",
          "name": "tokenId",
          "type": "uint256"
        }
      ],
      "name": "approve",
      "outputs": [],
      "stateMutability": "nonpayable",
      "type": "function"
    },
    {
      "inputs": [
        {
          "internalType": "address",
          "name": "owner",
          "type": "address"
        }
      ],
      "name": "balanceOf",
      "outputs": [
        {
          "internalType": "uint256",
          "name": "",
          "type": "uint256"
        }
      ],
      "stateMutability": "view",
      "type": "function"
    },
    {
      "inputs": [],
      "name": "currentItem",
      "outputs": [
        {
          "internalType": "uint256",
          "name": "",
          "type": "uint256"
        }
      ],
      "stateMutability": "view",
      "type": "function"
    },
    {
      "inputs": [
        {
          "internalType": "uint256",
          "name": "tokenId",
          "type": "uint256"
        }
      ],
      "name": "getApproved",
      "outputs": [
        {
          "internalType": "address",
          "name": "",
          "type": "address"
        }
      ],
      "stateMutability": "view",
      "type": "function"
    },
    {
      "inputs": [
        {
          "internalType": "uint256",
          "name": "tokenId",
          "type": "uint256"
        }
      ],
      "name": "getMinter",
      "outputs": [
        {
          "internalType": "address",
          "name": "",
          "type": "address"
        }
      ],
      "stateMutability": "view",
      "type": "function"
    },
    {
      "inputs": [
        {
          "internalType": "uint256",
          "name": "tokenId",
          "type": "uint256"
        }
      ],
      "name": "getRoyaltiesPercent",
      "outputs": [
        {
          "internalType": "uint256",
          "name": "",
          "type": "uint256"
        }
      ],
      "stateMutability": "view",
      "type": "function"
    },
    {
      "inputs": [
        {
          "internalType": "address",
          "name": "owner",
          "type": "address"
        },
        {
          "internalType": "address",
          "name": "operator",
          "type": "address"
        }
      ],
      "name": "isApprovedForAll",
      "outputs": [
        {
          "internalType": "bool",
          "name": "",
          "type": "bool"
        }
      ],
      "stateMutability": "view",
      "type": "function"
    },
    {
      "inputs": [
        {
          "internalType": "address",
          "name": "owner",
          "type": "address"
        }
      ],
      "name": "itemsOf",
      "outputs": [
        {
          "internalType": "uint256[]",
          "name": "",
          "type": "uint256[]"
        }
      ],
      "stateMutability": "view",
      "type": "function"
    },
    {
      "inputs": [],
      "name": "mintFee",
      "outputs": [
        {
          "internalType": "uint256",
          "name": "",
          "type": "uint256"
        }
      ],
      "stateMutability": "view",
      "type": "function"
    },
    {
      "inputs": [
        {
          "internalType": "uint256",
          "name": "newFee",
          "type": "uint256"
        }
      ],
      "name": "mintFeeUpdate",
      "outputs": [],
      "stateMutability": "nonpayable",
      "type": "function"
    },
    {
      "inputs": [
        {
          "internalType": "address",
          "name": "to",
          "type": "address"
        },
        {
          "internalType": "uint256",
          "name": "royaltiesPercent",
          "type": "uint256"
        },
        {
          "internalType": "string",
          "name": "tokenURI",
          "type": "string"
        }
      ],
      "name": "mintItem",
      "outputs": [
        {
          "internalType": "uint256",
          "name": "",
          "type": "uint256"
        }
      ],
      "stateMutability": "payable",
      "type": "function"
    },
    {
      "inputs": [],
      "name": "name",
      "outputs": [
        {
          "internalType": "string",
          "name": "",
          "type": "string"
        }
      ],
      "stateMutability": "view",
      "type": "function"
    },
    {
      "inputs": [],
      "name": "owner",
      "outputs": [
        {
          "internalType": "address",
          "name": "",
          "type": "address"
        }
      ],
      "stateMutability": "view",
      "type": "function"
    },
    {
      "inputs": [
        {
          "internalType": "uint256",
          "name": "tokenId",
          "type": "uint256"
        }
      ],
      "name": "ownerOf",
      "outputs": [
        {
          "internalType": "address",
          "name": "",
          "type": "address"
        }
      ],
      "stateMutability": "view",
      "type": "function"
    },
    {
      "inputs": [],
      "name": "renounceOwnership",
      "outputs": [],
      "stateMutability": "nonpayable",
      "type": "function"
    },
    {
      "inputs": [
        {
          "internalType": "address",
          "name": "from",
          "type": "address"
        },
        {
          "internalType": "address",
          "name": "to",
          "type": "address"
        },
        {
          "internalType": "uint256",
          "name": "tokenId",
          "type": "uint256"
        }
      ],
      "name": "safeTransferFrom",
      "outputs": [],
      "stateMutability": "nonpayable",
      "type": "function"
    },
    {
      "inputs": [
        {
          "internalType": "address",
          "name": "from",
          "type": "address"
        },
        {
          "internalType": "address",
          "name": "to",
          "type": "address"
        },
        {
          "internalType": "uint256",
          "name": "tokenId",
          "type": "uint256"
        },
        {
          "internalType": "bytes",
          "name": "data",
          "type": "bytes"
        }
      ],
      "name": "safeTransferFrom",
      "outputs": [],
      "stateMutability": "nonpayable",
      "type": "function"
    },
    {
      "inputs": [
        {
          "internalType": "address",
          "name": "operator",
          "type": "address"
        },
        {
          "internalType": "bool",
          "name": "approved",
          "type": "bool"
        }
      ],
      "name": "setApprovalForAll",
      "outputs": [],
      "stateMutability": "nonpayable",
      "type": "function"
    },
    {
      "inputs": [
        {
          "internalType": "uint256",
          "name": "tokenId",
          "type": "uint256"
        },
        {
          "internalType": "uint256",
          "name": "percent",
          "type": "uint256"
        }
      ],
      "name": "setRoyaltiesPercent",
      "outputs": [],
      "stateMutability": "nonpayable",
      "type": "function"
    },
    {
      "inputs": [
        {
          "internalType": "uint256",
          "name": "tokenId",
          "type": "uint256"
        },
        {
          "internalType": "string",
          "name": "newURI",
          "type": "string"
        }
      ],
      "name": "setURI",
      "outputs": [],
      "stateMutability": "nonpayable",
      "type": "function"
    },
    {
      "inputs": [
        {
          "internalType": "bytes4",
          "name": "interfaceId",
          "type": "bytes4"
        }
      ],
      "name": "supportsInterface",
      "outputs": [
        {
          "internalType": "bool",
          "name": "",
          "type": "bool"
        }
      ],
      "stateMutability": "view",
      "type": "function"
    },
    {
      "inputs": [],
      "name": "symbol",
      "outputs": [
        {
          "internalType": "string",
          "name": "",
          "type": "string"
        }
      ],
      "stateMutability": "view",
      "type": "function"
    },
    {
      "inputs": [
        {
          "internalType": "uint256",
          "name": "tokenId",
          "type": "uint256"
        }
      ],
      "name": "tokenURI",
      "outputs": [
        {
          "internalType": "string",
          "name": "",
          "type": "string"
        }
      ],
      "stateMutability": "view",
      "type": "function"
    },
    {
      "inputs": [
        {
          "internalType": "address",
          "name": "from",
          "type": "address"
        },
        {
          "internalType": "address",
          "name": "to",
          "type": "address"
        },
        {
          "internalType": "uint256",
          "name": "tokenId",
          "type": "uint256"
        }
      ],
      "name": "transferFrom",
      "outputs": [],
      "stateMutability": "nonpayable",
      "type": "function"
    },
    {
      "inputs": [
        {
          "internalType": "address",
          "name": "newOwner",
          "type": "address"
        }
      ],
      "name": "transferOwnership",
      "outputs": [],
      "stateMutability": "nonpayable",
      "type": "function"
    }
  ],
  "bytecode": "0x60806040523480156200001157600080fd5b506040518060400160405280600881526020017f506978656c3474650000000000000000000000000000000000000000000000008152506040518060400160405280600381526020017f504958000000000000000000000000000000000000000000000000000000000081525081600090816200008f919062000420565b508060019081620000a1919062000420565b505050620000c4620000b8620000d860201b60201c565b620000e060201b60201c565b662386f26fc10000600b8190555062000507565b600033905090565b6000600760009054906101000a900473ffffffffffffffffffffffffffffffffffffffff16905081600760006101000a81548173ffffffffffffffffffffffffffffffffffffffff021916908373ffffffffffffffffffffffffffffffffffffffff1602179055508173ffffffffffffffffffffffffffffffffffffffff168173ffffffffffffffffffffffffffffffffffffffff167f8be0079c531659141344cd1fd0a4f28419497f9722a3daafe3b4186f6b6457e060405160405180910390a35050565b600081519050919050565b7f4e487b7100000000000000000000000000000000000000000000000000000000600052604160045260246000fd5b7f4e487b7100000000000000000000000000000000000000000000000000000000600052602260045260246000fd5b600060028204905060018216806200022857607f821691505b6020821081036200023e576200023d620001e0565b5b50919050565b60008190508160005260206000209050919050565b60006020601f8301049050919050565b600082821b905092915050565b600060088302620002a87fffffffffffffffffffffffffffffffffffffffffffffffffffffffffffffffff8262000269565b620002b4868362000269565b95508019841693508086168417925050509392505050565b6000819050919050565b6000819050919050565b600062000301620002fb620002f584620002cc565b620002d6565b620002cc565b9050919050565b6000819050919050565b6200031d83620002e0565b620003356200032c8262000308565b84845462000276565b825550505050565b600090565b6200034c6200033d565b6200035981848462000312565b505050565b5b8181101562000381576200037560008262000342565b6001810190506200035f565b5050565b601f821115620003d0576200039a8162000244565b620003a58462000259565b81016020851015620003b5578190505b620003cd620003c48562000259565b8301826200035e565b50505b505050565b600082821c905092915050565b6000620003f560001984600802620003d5565b1980831691505092915050565b6000620004108383620003e2565b9150826002028217905092915050565b6200042b82620001a6565b67ffffffffffffffff811115620004475762000446620001b1565b5b6200045382546200020f565b6200046082828562000385565b600060209050601f83116001811462000498576000841562000483578287015190505b6200048f858262000402565b865550620004ff565b601f198416620004a88662000244565b60005b82811015620004d257848901518255600182019150602085019450602081019050620004ab565b86831015620004f25784890151620004ee601f891682620003e2565b8355505b6001600288020188555050505b505050505050565b61393a80620005176000396000f3fe6080604052600436106101665760003560e01c80637231a876116100d15780639a22d0ea1161008a578063c87b56dd11610064578063c87b56dd14610551578063e985e9c51461058e578063f2fde38b146105cb578063fdf2d21e146105f457610166565b80639a22d0ea146104c2578063a22cb465146104ff578063b88d4fde1461052857610166565b80637231a876146103ad5780638337afdc146103ea578063862440e21461041a578063889576e9146104435780638da5cb5b1461046c57806395d89b411461049757610166565b806323b872dd1161012357806323b872dd1461028d57806342842e0e146102b65780635b7121f8146102df5780636352211e1461031c57806370a0823114610359578063715018a61461039657610166565b806301ffc9a71461016b57806306fdde03146101a8578063081812fc146101d3578063095ea7b31461021057806313966db514610239578063207e616114610264575b600080fd5b34801561017757600080fd5b50610192600480360381019061018d919061234a565b61061f565b60405161019f9190612392565b60405180910390f35b3480156101b457600080fd5b506101bd610701565b6040516101ca919061243d565b60405180910390f35b3480156101df57600080fd5b506101fa60048036038101906101f59190612495565b610793565b6040516102079190612503565b60405180910390f35b34801561021c57600080fd5b506102376004803603810190610232919061254a565b6107d9565b005b34801561024557600080fd5b5061024e6108f0565b60405161025b9190612599565b60405180910390f35b34801561027057600080fd5b5061028b60048036038101906102869190612495565b6108f6565b005b34801561029957600080fd5b506102b460048036038101906102af91906125b4565b610908565b005b3480156102c257600080fd5b506102dd60048036038101906102d891906125b4565b610968565b005b3480156102eb57600080fd5b5061030660048036038101906103019190612495565b610988565b6040516103139190612503565b60405180910390f35b34801561032857600080fd5b50610343600480360381019061033e9190612495565b6109c5565b6040516103509190612503565b60405180910390f35b34801561036557600080fd5b50610380600480360381019061037b9190612607565b610a4b565b60405161038d9190612599565b60405180910390f35b3480156103a257600080fd5b506103ab610b02565b005b3480156103b957600080fd5b506103d460048036038101906103cf9190612607565b610b16565b6040516103e191906126f2565b60405180910390f35b61040460048036038101906103ff9190612849565b610c24565b6040516104119190612599565b60405180910390f35b34801561042657600080fd5b50610441600480360381019061043c91906128b8565b610d5a565b005b34801561044f57600080fd5b5061046a60048036038101906104659190612914565b610de4565b005b34801561047857600080fd5b50610481610ea1565b60405161048e9190612503565b60405180910390f35b3480156104a357600080fd5b506104ac610ecb565b6040516104b9919061243d565b60405180910390f35b3480156104ce57600080fd5b506104e960048036038101906104e49190612495565b610f5d565b6040516104f69190612599565b60405180910390f35b34801561050b57600080fd5b5061052660048036038101906105219190612980565b610f7a565b005b34801561053457600080fd5b5061054f600480360381019061054a9190612a61565b610f90565b005b34801561055d57600080fd5b5061057860048036038101906105739190612495565b610ff2565b604051610585919061243d565b60405180910390f35b34801561059a57600080fd5b506105b560048036038101906105b09190612ae4565b611104565b6040516105c29190612392565b60405180910390f35b3480156105d757600080fd5b506105f260048036038101906105ed9190612607565b611198565b005b34801561060057600080fd5b5061060961121b565b6040516106169190612599565b60405180910390f35b60007f80ac58cd000000000000000000000000000000000000000000000000000000007bffffffffffffffffffffffffffffffffffffffffffffffffffffffff1916827bffffffffffffffffffffffffffffffffffffffffffffffffffffffff191614806106ea57507f5b5e139f000000000000000000000000000000000000000000000000000000007bffffffffffffffffffffffffffffffffffffffffffffffffffffffff1916827bffffffffffffffffffffffffffffffffffffffffffffffffffffffff1916145b806106fa57506106f98261122c565b5b9050919050565b60606000805461071090612b53565b80601f016020809104026020016040519081016040528092919081815260200182805461073c90612b53565b80156107895780601f1061075e57610100808354040283529160200191610789565b820191906000526020600020905b81548152906001019060200180831161076c57829003601f168201915b5050505050905090565b600061079e82611296565b6004600083815260200190815260200160002060009054906101000a900473ffffffffffffffffffffffffffffffffffffffff169050919050565b60006107e4826109c5565b90508073ffffffffffffffffffffffffffffffffffffffff168373ffffffffffffffffffffffffffffffffffffffff1603610854576040517f08c379a000000000000000000000000000000000000000000000000000000000815260040161084b90612bf6565b60405180910390fd5b8073ffffffffffffffffffffffffffffffffffffffff166108736112e1565b73ffffffffffffffffffffffffffffffffffffffff1614806108a257506108a18161089c6112e1565b611104565b5b6108e1576040517f08c379a00000000000000000000000000000000000000000000000000000000081526004016108d890612c88565b60405180910390fd5b6108eb83836112e9565b505050565b600b5481565b6108fe6113a2565b80600b8190555050565b6109196109136112e1565b82611420565b610958576040517f08c379a000000000000000000000000000000000000000000000000000000000815260040161094f90612d1a565b60405180910390fd5b6109638383836114b5565b505050565b61098383838360405180602001604052806000815250610f90565b505050565b60006009600083815260200190815260200160002060009054906101000a900473ffffffffffffffffffffffffffffffffffffffff169050919050565b6000806109d1836117ae565b9050600073ffffffffffffffffffffffffffffffffffffffff168173ffffffffffffffffffffffffffffffffffffffff1603610a42576040517f08c379a0000000000000000000000000000000000000000000000000000000008152600401610a3990612d86565b60405180910390fd5b80915050919050565b60008073ffffffffffffffffffffffffffffffffffffffff168273ffffffffffffffffffffffffffffffffffffffff1603610abb576040517f08c379a0000000000000000000000000000000000000000000000000000000008152600401610ab290612e18565b60405180910390fd5b600360008373ffffffffffffffffffffffffffffffffffffffff1673ffffffffffffffffffffffffffffffffffffffff168152602001908152602001600020549050919050565b610b0a6113a2565b610b1460006117eb565b565b60606000610b2383610a4b565b905060008167ffffffffffffffff811115610b4157610b4061271e565b5b604051908082528060200260200182016040528015610b6f5781602001602082028036833780820191505090505b50905060008203610b84578092505050610c1f565b600080600190505b610b9461121b565b8111610c17578573ffffffffffffffffffffffffffffffffffffffff16610bba826109c5565b73ffffffffffffffffffffffffffffffffffffffff1603610c045780838381518110610be957610be8612e38565b5b6020026020010181815250508180610c0090612e96565b9250505b8080610c0f90612e96565b915050610b8c565b508193505050505b919050565b6000600b54341015610c6b576040517f08c379a0000000000000000000000000000000000000000000000000000000008152600401610c6290612f2a565b60405180910390fd5b610c7560086118b1565b6000610c8160086118c7565b9050610c8d85826118d5565b610c978184611af2565b336009600083815260200190815260200160002060006101000a81548173ffffffffffffffffffffffffffffffffffffffff021916908373ffffffffffffffffffffffffffffffffffffffff16021790555083600a600083815260200190815260200160002081905550610d09610ea1565b73ffffffffffffffffffffffffffffffffffffffff166108fc349081150290604051600060405180830381858888f19350505050158015610d4e573d6000803e3d6000fd5b50809150509392505050565b6000610d65836109c5565b90508073ffffffffffffffffffffffffffffffffffffffff163373ffffffffffffffffffffffffffffffffffffffff1614610dd5576040517f08c379a0000000000000000000000000000000000000000000000000000000008152600401610dcc90612f96565b60405180910390fd5b610ddf8383611af2565b505050565b3373ffffffffffffffffffffffffffffffffffffffff166009600084815260200190815260200160002060009054906101000a900473ffffffffffffffffffffffffffffffffffffffff1673ffffffffffffffffffffffffffffffffffffffff1614610e85576040517f08c379a0000000000000000000000000000000000000000000000000000000008152600401610e7c90613002565b60405180910390fd5b80600a6000848152602001908152602001600020819055505050565b6000600760009054906101000a900473ffffffffffffffffffffffffffffffffffffffff16905090565b606060018054610eda90612b53565b80601f0160208091040260200160405190810160405280929190818152602001828054610f0690612b53565b8015610f535780601f10610f2857610100808354040283529160200191610f53565b820191906000526020600020905b815481529060010190602001808311610f3657829003601f168201915b5050505050905090565b6000600a6000838152602001908152602001600020549050919050565b610f8c610f856112e1565b8383611b5f565b5050565b610fa1610f9b6112e1565b83611420565b610fe0576040517f08c379a0000000000000000000000000000000000000000000000000000000008152600401610fd790612d1a565b60405180910390fd5b610fec84848484611ccb565b50505050565b6060610ffd82611296565b600060066000848152602001908152602001600020805461101d90612b53565b80601f016020809104026020016040519081016040528092919081815260200182805461104990612b53565b80156110965780601f1061106b57610100808354040283529160200191611096565b820191906000526020600020905b81548152906001019060200180831161107957829003601f168201915b5050505050905060006110a7611d27565b905060008151036110bc5781925050506110ff565b6000825111156110f15780826040516020016110d992919061305e565b604051602081830303815290604052925050506110ff565b6110fa84611d3e565b925050505b919050565b6000600560008473ffffffffffffffffffffffffffffffffffffffff1673ffffffffffffffffffffffffffffffffffffffff16815260200190815260200160002060008373ffffffffffffffffffffffffffffffffffffffff1673ffffffffffffffffffffffffffffffffffffffff16815260200190815260200160002060009054906101000a900460ff16905092915050565b6111a06113a2565b600073ffffffffffffffffffffffffffffffffffffffff168173ffffffffffffffffffffffffffffffffffffffff160361120f576040517f08c379a0000000000000000000000000000000000000000000000000000000008152600401611206906130f4565b60405180910390fd5b611218816117eb565b50565b600061122760086118c7565b905090565b60007f01ffc9a7000000000000000000000000000000000000000000000000000000007bffffffffffffffffffffffffffffffffffffffffffffffffffffffff1916827bffffffffffffffffffffffffffffffffffffffffffffffffffffffff1916149050919050565b61129f81611da6565b6112de576040517f08c379a00000000000000000000000000000000000000000000000000000000081526004016112d590612d86565b60405180910390fd5b50565b600033905090565b816004600083815260200190815260200160002060006101000a81548173ffffffffffffffffffffffffffffffffffffffff021916908373ffffffffffffffffffffffffffffffffffffffff160217905550808273ffffffffffffffffffffffffffffffffffffffff1661135c836109c5565b73ffffffffffffffffffffffffffffffffffffffff167f8c5be1e5ebec7d5bd14f71427d1e84f3dd0314c0f7b2291e5b200ac8c7c3b92560405160405180910390a45050565b6113aa6112e1565b73ffffffffffffffffffffffffffffffffffffffff166113c8610ea1565b73ffffffffffffffffffffffffffffffffffffffff161461141e576040517f08c379a000000000000000000000000000000000000000000000000000000000815260040161141590613160565b60405180910390fd5b565b60008061142c836109c5565b90508073ffffffffffffffffffffffffffffffffffffffff168473ffffffffffffffffffffffffffffffffffffffff16148061146e575061146d8185611104565b5b806114ac57508373ffffffffffffffffffffffffffffffffffffffff1661149484610793565b73ffffffffffffffffffffffffffffffffffffffff16145b91505092915050565b8273ffffffffffffffffffffffffffffffffffffffff166114d5826109c5565b73ffffffffffffffffffffffffffffffffffffffff161461152b576040517f08c379a0000000000000000000000000000000000000000000000000000000008152600401611522906131f2565b60405180910390fd5b600073ffffffffffffffffffffffffffffffffffffffff168273ffffffffffffffffffffffffffffffffffffffff160361159a576040517f08c379a000000000000000000000000000000000000000000000000000000000815260040161159190613284565b60405180910390fd5b6115a78383836001611de7565b8273ffffffffffffffffffffffffffffffffffffffff166115c7826109c5565b73ffffffffffffffffffffffffffffffffffffffff161461161d576040517f08c379a0000000000000000000000000000000000000000000000000000000008152600401611614906131f2565b60405180910390fd5b6004600082815260200190815260200160002060006101000a81549073ffffffffffffffffffffffffffffffffffffffff02191690556001600360008573ffffffffffffffffffffffffffffffffffffffff1673ffffffffffffffffffffffffffffffffffffffff168152602001908152602001600020600082825403925050819055506001600360008473ffffffffffffffffffffffffffffffffffffffff1673ffffffffffffffffffffffffffffffffffffffff16815260200190815260200160002060008282540192505081905550816002600083815260200190815260200160002060006101000a81548173ffffffffffffffffffffffffffffffffffffffff021916908373ffffffffffffffffffffffffffffffffffffffff160217905550808273ffffffffffffffffffffffffffffffffffffffff168473ffffffffffffffffffffffffffffffffffffffff167fddf252ad1be2c89b69c2b068fc378daa952ba7f163c4a11628f55a4df523b3ef60405160405180910390a46117a98383836001611f0d565b505050565b60006002600083815260200190815260200160002060009054906101000a900473ffffffffffffffffffffffffffffffffffffffff169050919050565b6000600760009054906101000a900473ffffffffffffffffffffffffffffffffffffffff16905081600760006101000a81548173ffffffffffffffffffffffffffffffffffffffff021916908373ffffffffffffffffffffffffffffffffffffffff1602179055508173ffffffffffffffffffffffffffffffffffffffff168173ffffffffffffffffffffffffffffffffffffffff167f8be0079c531659141344cd1fd0a4f28419497f9722a3daafe3b4186f6b6457e060405160405180910390a35050565b6001816000016000828254019250508190555050565b600081600001549050919050565b600073ffffffffffffffffffffffffffffffffffffffff168273ffffffffffffffffffffffffffffffffffffffff1603611944576040517f08c379a000000000000000000000000000000000000000000000000000000000815260040161193b906132f0565b60405180910390fd5b61194d81611da6565b1561198d576040517f08c379a00000000000000000000000000000000000000000000000000000000081526004016119849061335c565b60405180910390fd5b61199b600083836001611de7565b6119a481611da6565b156119e4576040517f08c379a00000000000000000000000000000000000000000000000000000000081526004016119db9061335c565b60405180910390fd5b6001600360008473ffffffffffffffffffffffffffffffffffffffff1673ffffffffffffffffffffffffffffffffffffffff16815260200190815260200160002060008282540192505081905550816002600083815260200190815260200160002060006101000a81548173ffffffffffffffffffffffffffffffffffffffff021916908373ffffffffffffffffffffffffffffffffffffffff160217905550808273ffffffffffffffffffffffffffffffffffffffff16600073ffffffffffffffffffffffffffffffffffffffff167fddf252ad1be2c89b69c2b068fc378daa952ba7f163c4a11628f55a4df523b3ef60405160405180910390a4611aee600083836001611f0d565b5050565b611afb82611da6565b611b3a576040517f08c379a0000000000000000000000000000000000000000000000000000000008152600401611b31906133ee565b60405180910390fd5b80600660008481526020019081526020016000209081611b5a91906135ba565b505050565b8173ffffffffffffffffffffffffffffffffffffffff168373ffffffffffffffffffffffffffffffffffffffff1603611bcd576040517f08c379a0000000000000000000000000000000000000000000000000000000008152600401611bc4906136d8565b60405180910390fd5b80600560008573ffffffffffffffffffffffffffffffffffffffff1673ffffffffffffffffffffffffffffffffffffffff16815260200190815260200160002060008473ffffffffffffffffffffffffffffffffffffffff1673ffffffffffffffffffffffffffffffffffffffff16815260200190815260200160002060006101000a81548160ff0219169083151502179055508173ffffffffffffffffffffffffffffffffffffffff168373ffffffffffffffffffffffffffffffffffffffff167f17307eab39ab6107e8899845ad3d59bd9653f200f220920489ca2b5937696c3183604051611cbe9190612392565b60405180910390a3505050565b611cd68484846114b5565b611ce284848484611f13565b611d21576040517f08c379a0000000000000000000000000000000000000000000000000000000008152600401611d189061376a565b60405180910390fd5b50505050565b606060405180602001604052806000815250905090565b6060611d4982611296565b6000611d53611d27565b90506000815111611d735760405180602001604052806000815250611d9e565b80611d7d8461209a565b604051602001611d8e92919061305e565b6040516020818303038152906040525b915050919050565b60008073ffffffffffffffffffffffffffffffffffffffff16611dc8836117ae565b73ffffffffffffffffffffffffffffffffffffffff1614159050919050565b6001811115611f0757600073ffffffffffffffffffffffffffffffffffffffff168473ffffffffffffffffffffffffffffffffffffffff1614611e7b5780600360008673ffffffffffffffffffffffffffffffffffffffff1673ffffffffffffffffffffffffffffffffffffffff1681526020019081526020016000206000828254611e73919061378a565b925050819055505b600073ffffffffffffffffffffffffffffffffffffffff168373ffffffffffffffffffffffffffffffffffffffff1614611f065780600360008573ffffffffffffffffffffffffffffffffffffffff1673ffffffffffffffffffffffffffffffffffffffff1681526020019081526020016000206000828254611efe91906137be565b925050819055505b5b50505050565b50505050565b6000611f348473ffffffffffffffffffffffffffffffffffffffff16612168565b1561208d578373ffffffffffffffffffffffffffffffffffffffff1663150b7a02611f5d6112e1565b8786866040518563ffffffff1660e01b8152600401611f7f9493929190613847565b6020604051808303816000875af1925050508015611fbb57506040513d601f19601f82011682018060405250810190611fb891906138a8565b60015b61203d573d8060008114611feb576040519150601f19603f3d011682016040523d82523d6000602084013e611ff0565b606091505b506000815103612035576040517f08c379a000000000000000000000000000000000000000000000000000000000815260040161202c9061376a565b60405180910390fd5b805181602001fd5b63150b7a0260e01b7bffffffffffffffffffffffffffffffffffffffffffffffffffffffff1916817bffffffffffffffffffffffffffffffffffffffffffffffffffffffff191614915050612092565b600190505b949350505050565b6060600060016120a98461218b565b01905060008167ffffffffffffffff8111156120c8576120c761271e565b5b6040519080825280601f01601f1916602001820160405280156120fa5781602001600182028036833780820191505090505b509050600082602001820190505b60011561215d578080600190039150507f3031323334353637383961626364656600000000000000000000000000000000600a86061a8153600a8581612151576121506138d5565b5b04945060008503612108575b819350505050919050565b6000808273ffffffffffffffffffffffffffffffffffffffff163b119050919050565b600080600090507a184f03e93ff9f4daa797ed6e38ed64bf6a1f01000000000000000083106121e9577a184f03e93ff9f4daa797ed6e38ed64bf6a1f01000000000000000083816121df576121de6138d5565b5b0492506040810190505b6d04ee2d6d415b85acef81000000008310612226576d04ee2d6d415b85acef8100000000838161221c5761221b6138d5565b5b0492506020810190505b662386f26fc10000831061225557662386f26fc10000838161224b5761224a6138d5565b5b0492506010810190505b6305f5e100831061227e576305f5e1008381612274576122736138d5565b5b0492506008810190505b61271083106122a3576127108381612299576122986138d5565b5b0492506004810190505b606483106122c657606483816122bc576122bb6138d5565b5b0492506002810190505b600a83106122d5576001810190505b80915050919050565b6000604051905090565b600080fd5b600080fd5b60007fffffffff0000000000000000000000000000000000000000000000000000000082169050919050565b612327816122f2565b811461233257600080fd5b50565b6000813590506123448161231e565b92915050565b6000602082840312156123605761235f6122e8565b5b600061236e84828501612335565b91505092915050565b60008115159050919050565b61238c81612377565b82525050565b60006020820190506123a76000830184612383565b92915050565b600081519050919050565b600082825260208201905092915050565b60005b838110156123e75780820151818401526020810190506123cc565b60008484015250505050565b6000601f19601f8301169050919050565b600061240f826123ad565b61241981856123b8565b93506124298185602086016123c9565b612432816123f3565b840191505092915050565b600060208201905081810360008301526124578184612404565b905092915050565b6000819050919050565b6124728161245f565b811461247d57600080fd5b50565b60008135905061248f81612469565b92915050565b6000602082840312156124ab576124aa6122e8565b5b60006124b984828501612480565b91505092915050565b600073ffffffffffffffffffffffffffffffffffffffff82169050919050565b60006124ed826124c2565b9050919050565b6124fd816124e2565b82525050565b600060208201905061251860008301846124f4565b92915050565b612527816124e2565b811461253257600080fd5b50565b6000813590506125448161251e565b92915050565b60008060408385031215612561576125606122e8565b5b600061256f85828601612535565b925050602061258085828601612480565b9150509250929050565b6125938161245f565b82525050565b60006020820190506125ae600083018461258a565b92915050565b6000806000606084860312156125cd576125cc6122e8565b5b60006125db86828701612535565b93505060206125ec86828701612535565b92505060406125fd86828701612480565b9150509250925092565b60006020828403121561261d5761261c6122e8565b5b600061262b84828501612535565b91505092915050565b600081519050919050565b600082825260208201905092915050565b6000819050602082019050919050565b6126698161245f565b82525050565b600061267b8383612660565b60208301905092915050565b6000602082019050919050565b600061269f82612634565b6126a9818561263f565b93506126b483612650565b8060005b838110156126e55781516126cc888261266f565b97506126d783612687565b9250506001810190506126b8565b5085935050505092915050565b6000602082019050818103600083015261270c8184612694565b905092915050565b600080fd5b600080fd5b7f4e487b7100000000000000000000000000000000000000000000000000000000600052604160045260246000fd5b612756826123f3565b810181811067ffffffffffffffff821117156127755761277461271e565b5b80604052505050565b60006127886122de565b9050612794828261274d565b919050565b600067ffffffffffffffff8211156127b4576127b361271e565b5b6127bd826123f3565b9050602081019050919050565b82818337600083830152505050565b60006127ec6127e784612799565b61277e565b90508281526020810184848401111561280857612807612719565b5b6128138482856127ca565b509392505050565b600082601f8301126128305761282f612714565b5b81356128408482602086016127d9565b91505092915050565b600080600060608486031215612862576128616122e8565b5b600061287086828701612535565b935050602061288186828701612480565b925050604084013567ffffffffffffffff8111156128a2576128a16122ed565b5b6128ae8682870161281b565b9150509250925092565b600080604083850312156128cf576128ce6122e8565b5b60006128dd85828601612480565b925050602083013567ffffffffffffffff8111156128fe576128fd6122ed565b5b61290a8582860161281b565b9150509250929050565b6000806040838503121561292b5761292a6122e8565b5b600061293985828601612480565b925050602061294a85828601612480565b9150509250929050565b61295d81612377565b811461296857600080fd5b50565b60008135905061297a81612954565b92915050565b60008060408385031215612997576129966122e8565b5b60006129a585828601612535565b92505060206129b68582860161296b565b9150509250929050565b600067ffffffffffffffff8211156129db576129da61271e565b5b6129e4826123f3565b9050602081019050919050565b6000612a046129ff846129c0565b61277e565b905082815260208101848484011115612a2057612a1f612719565b5b612a2b8482856127ca565b509392505050565b600082601f830112612a4857612a47612714565b5b8135612a588482602086016129f1565b91505092915050565b60008060008060808587031215612a7b57612a7a6122e8565b5b6000612a8987828801612535565b9450506020612a9a87828801612535565b9350506040612aab87828801612480565b925050606085013567ffffffffffffffff811115612acc57612acb6122ed565b5b612ad887828801612a33565b91505092959194509250565b60008060408385031215612afb57612afa6122e8565b5b6000612b0985828601612535565b9250506020612b1a85828601612535565b9150509250929050565b7f4e487b7100000000000000000000000000000000000000000000000000000000600052602260045260246000fd5b60006002820490506001821680612b6b57607f821691505b602082108103612b7e57612b7d612b24565b5b50919050565b7f4552433732313a20617070726f76616c20746f2063757272656e74206f776e6560008201527f7200000000000000000000000000000000000000000000000000000000000000602082015250565b6000612be06021836123b8565b9150612beb82612b84565b604082019050919050565b60006020820190508181036000830152612c0f81612bd3565b9050919050565b7f4552433732313a20617070726f76652063616c6c6572206973206e6f7420746f60008201527f6b656e206f776e6572206f7220617070726f76656420666f7220616c6c000000602082015250565b6000612c72603d836123b8565b9150612c7d82612c16565b604082019050919050565b60006020820190508181036000830152612ca181612c65565b9050919050565b7f4552433732313a2063616c6c6572206973206e6f7420746f6b656e206f776e6560008201527f72206f7220617070726f76656400000000000000000000000000000000000000602082015250565b6000612d04602d836123b8565b9150612d0f82612ca8565b604082019050919050565b60006020820190508181036000830152612d3381612cf7565b9050919050565b7f4552433732313a20696e76616c696420746f6b656e2049440000000000000000600082015250565b6000612d706018836123b8565b9150612d7b82612d3a565b602082019050919050565b60006020820190508181036000830152612d9f81612d63565b9050919050565b7f4552433732313a2061646472657373207a65726f206973206e6f74206120766160008201527f6c6964206f776e65720000000000000000000000000000000000000000000000602082015250565b6000612e026029836123b8565b9150612e0d82612da6565b604082019050919050565b60006020820190508181036000830152612e3181612df5565b9050919050565b7f4e487b7100000000000000000000000000000000000000000000000000000000600052603260045260246000fd5b7f4e487b7100000000000000000000000000000000000000000000000000000000600052601160045260246000fd5b6000612ea18261245f565b91507fffffffffffffffffffffffffffffffffffffffffffffffffffffffffffffffff8203612ed357612ed2612e67565b5b600182019050919050565b7f496e73756666696369656e74207061796d656e74000000000000000000000000600082015250565b6000612f146014836123b8565b9150612f1f82612ede565b602082019050919050565b60006020820190508181036000830152612f4381612f07565b9050919050565b7f554e415554484f52495a45440000000000000000000000000000000000000000600082015250565b6000612f80600c836123b8565b9150612f8b82612f4a565b602082019050919050565b60006020820190508181036000830152612faf81612f73565b9050919050565b7f556e617574686f72697a65640000000000000000000000000000000000000000600082015250565b6000612fec600c836123b8565b9150612ff782612fb6565b602082019050919050565b6000602082019050818103600083015261301b81612fdf565b9050919050565b600081905092915050565b6000613038826123ad565b6130428185613022565b93506130528185602086016123c9565b80840191505092915050565b600061306a828561302d565b9150613076828461302d565b91508190509392505050565b7f4f776e61626c653a206e6577206f776e657220697320746865207a65726f206160008201527f6464726573730000000000000000000000000000000000000000000000000000602082015250565b60006130de6026836123b8565b91506130e982613082565b604082019050919050565b6000602082019050818103600083015261310d816130d1565b9050919050565b7f4f776e61626c653a2063616c6c6572206973206e6f7420746865206f776e6572600082015250565b600061314a6020836123b8565b915061315582613114565b602082019050919050565b600060208201905081810360008301526131798161313d565b9050919050565b7f4552433732313a207472616e736665722066726f6d20696e636f72726563742060008201527f6f776e6572000000000000000000000000000000000000000000000000000000602082015250565b60006131dc6025836123b8565b91506131e782613180565b604082019050919050565b6000602082019050818103600083015261320b816131cf565b9050919050565b7f4552433732313a207472616e7366657220746f20746865207a65726f2061646460008201527f7265737300000000000000000000000000000000000000000000000000000000602082015250565b600061326e6024836123b8565b915061327982613212565b604082019050919050565b6000602082019050818103600083015261329d81613261565b9050919050565b7f4552433732313a206d696e7420746f20746865207a65726f2061646472657373600082015250565b60006132da6020836123b8565b91506132e5826132a4565b602082019050919050565b60006020820190508181036000830152613309816132cd565b9050919050565b7f4552433732313a20746f6b656e20616c7265616479206d696e74656400000000600082015250565b6000613346601c836123b8565b915061335182613310565b602082019050919050565b6000602082019050818103600083015261337581613339565b9050919050565b7f45524337323155524953746f726167653a2055524920736574206f66206e6f6e60008201527f6578697374656e7420746f6b656e000000000000000000000000000000000000602082015250565b60006133d8602e836123b8565b91506133e38261337c565b604082019050919050565b60006020820190508181036000830152613407816133cb565b9050919050565b60008190508160005260206000209050919050565b60006020601f8301049050919050565b600082821b905092915050565b6000600883026134707fffffffffffffffffffffffffffffffffffffffffffffffffffffffffffffffff82613433565b61347a8683613433565b95508019841693508086168417925050509392505050565b6000819050919050565b60006134b76134b26134ad8461245f565b613492565b61245f565b9050919050565b6000819050919050565b6134d18361349c565b6134e56134dd826134be565b848454613440565b825550505050565b600090565b6134fa6134ed565b6135058184846134c8565b505050565b5b818110156135295761351e6000826134f2565b60018101905061350b565b5050565b601f82111561356e5761353f8161340e565b61354884613423565b81016020851015613557578190505b61356b61356385613423565b83018261350a565b50505b505050565b600082821c905092915050565b600061359160001984600802613573565b1980831691505092915050565b60006135aa8383613580565b9150826002028217905092915050565b6135c3826123ad565b67ffffffffffffffff8111156135dc576135db61271e565b5b6135e68254612b53565b6135f182828561352d565b600060209050601f8311600181146136245760008415613612578287015190505b61361c858261359e565b865550613684565b601f1984166136328661340e565b60005b8281101561365a57848901518255600182019150602085019450602081019050613635565b868310156136775784890151613673601f891682613580565b8355505b6001600288020188555050505b505050505050565b7f4552433732313a20617070726f766520746f2063616c6c657200000000000000600082015250565b60006136c26019836123b8565b91506136cd8261368c565b602082019050919050565b600060208201905081810360008301526136f1816136b5565b9050919050565b7f4552433732313a207472616e7366657220746f206e6f6e20455243373231526560008201527f63656976657220696d706c656d656e7465720000000000000000000000000000602082015250565b60006137546032836123b8565b915061375f826136f8565b604082019050919050565b6000602082019050818103600083015261378381613747565b9050919050565b60006137958261245f565b91506137a08361245f565b92508282039050818111156137b8576137b7612e67565b5b92915050565b60006137c98261245f565b91506137d48361245f565b92508282019050808211156137ec576137eb612e67565b5b92915050565b600081519050919050565b600082825260208201905092915050565b6000613819826137f2565b61382381856137fd565b93506138338185602086016123c9565b61383c816123f3565b840191505092915050565b600060808201905061385c60008301876124f4565b61386960208301866124f4565b613876604083018561258a565b8181036060830152613888818461380e565b905095945050505050565b6000815190506138a28161231e565b92915050565b6000602082840312156138be576138bd6122e8565b5b60006138cc84828501613893565b91505092915050565b7f4e487b7100000000000000000000000000000000000000000000000000000000600052601260045260246000fdfea26469706673582212205651ae85b437b394a95c1bd7905c4bf1c7cea5f884729aef28a6216fa55594ab64736f6c63430008110033",
  "linkReferences": {},
  "deployedLinkReferences": {}
}